:020000040800F2
:1000000000500020AD020008550200085D02000803
:10001000650200086D02000875020008000000007B
:100020000000000000000000000000007D02000849
:10003000890200080000000095020008A1020008E3
:10004000F5020008F5020008F5020008F5020008B4
:10005000F5020008F502000871050008F502000825
:10006000F5020008F5020008F5020008F502000894
:10007000F5020008F5020008F5020008F502000884
:10008000F5020008151C0008F5020008F50200083A
:10009000751B0008F5020008F5020008F5020008CB
:1000A000F5020008F5020008F5020008F502000854
:1000B0009D05000831070008F5020008F502000858
:1000C000F5020008F5020008F5020008F502000834
:1000D000F5020008C9070008F5020008F50200084B
:1000E000F5020008F5020008F50200080000000013
:1000F0000000000000000000000000000000000000
:0C01000000000000000000005FF808F1A3
:10010C0010B5054C237833B9044B13B10448AFF345
:10011C0000800123237010BD60000020000000004F
:10012C00401C000808B5034B1BB103490348AFF34F
:10013C00008008BD0000000064000020401C000886
:10014C0070B500260C4D0D4C641BA410A64209D1B1
:10015C0001F070FD00260A4D0A4C641BA410A64247
:10016C0005D170BD55F8043B98470136EEE755F8BC
:10017C00043B98470136F2E7A41C0008A41C0008B5
:10018C00A41C0008A81C000880B400AF00BFBD462A
:10019C0080BC704780B400AF054B1B781A46054BEA
:1001AC001B681344034A136000BFBD4680BC7047F4
:1001BC00000000207C00002080B582B000AF00F071
:1001CC00A3F800F0AFF800F091F800F0B9F800F0E7
:1001DC00C5F800F0D1F800F0EBF800F0F7F800F0FB
:1001EC00D9F8164B7B607B684FF080721A60032243
:1001FC004021134800F0FCF800224021114800F087
:10020C00F7F801224FF400710E4800F0F1F800F0FD
:10021C0037FA01224FF400710A4800F08BF90F20D5
:10022C0000F0CAF900224FF40071064800F082F980
:10023C003C2000F0F3F900BFEBE700BF04000140E5
:10024C00000C01400008014080B400AF00BFFDE786
:10025C0080B400AF00BFFDE780B400AF00BFFDE786
:10026C0080B400AF00BFFDE780B400AF00BFFDE776
:10027C0080B400AF00BFBD4680BC704780B400AFF7
:10028C0000BFBD4680BC704780B400AF00BFBD4608
:10029C0080BC704780B500AFFFF77CFF00BF80BD0E
:1002AC00FFF772FF0B480C490C4A002302E0D458AC
:1002BC00C4500433C4188C42F9D3094A094C0023A6
:1002CC0001E013600432A242FBD3FFF739FFFFF7C2
:1002DC0073FF70470000002060000020AC1C000879
:1002EC006000002048030020FEE7000080B400AF4F
:1002FC00044A936943F00403936100BFBD4680BC7C
:10030C00704700BF0010024080B400AF044A9369EC
:10031C0043F00803936100BFBD4680BC704700BF2B
:10032C000010024080B400AF044A936943F01003FC
:10033C00936100BFBD4680BC704700BF00100240F7
:10034C0080B400AF044A936943F00103936100BF8A
:10035C00BD4680BC704700BF0010024080B400AFA7
:10036C00044AD36943F00103D36100BFBD4680BC8E
:10037C00704700BF0010024080B400AF044AD3693C
:10038C0043F00203D36100BFBD4680BC704700BF81
:10039C000010024080B400AF044A936943F4006338
:1003AC00936100BFBD4680BC704700BF0010024087
:1003BC0080B400AF044AD36943F40033D36100BF67
:1003CC00BD4680BC704700BF0010024080B400AF37
:1003DC00064A536943F001035361044A536943F0DD
:1003EC000203536100BFBD4680BC70470010024041
:1003FC0080B487B000AFF8600B467A607B81002335
:10040C007B6100233B6100237B6188E07A897B69F7
:10041C0042FA03F303F00103002B7DD07B69072B19
:10042C000BD8FB681A687B699B000F2101FA03F358
:10043C00DB431A40FB681A600BE0FB685A687B6967
:10044C00083B9B000F2101FA03F3DB431A40FB68C6
:10045C005A607B68072B3ED801A252F823F000BFEC
:10046C00AB0400088D0400089304000899040008EC
:10047C009F040008A5040008B1040008C904000882
:10048C0003233B6127E007233B6124E00B233B6103
:10049C0021E00F233B611EE000233B611BE00423A2
:1004AC003B6118E008233B61FB68DB6801217A693A
:1004BC0001FA02F21A43FB68DA600CE008233B6194
:1004CC00FB68DB6801217A6901FA02F2D2431A4017
:1004DC00FB68DA6000BF7B68002B04D07B68072BBD
:1004EC0001D07B68062B7B69072B0AD8FB681A683E
:1004FC007B699B00396901FA03F31A43FB681A60A4
:10050C000AE0FB685A687B69083B9B00396901FA71
:10051C0003F31A43FB685A607B6901337B617B6987
:10052C000F2B7FF673AF00BF00BF1C37BD4680BCDE
:10053C00704700BF80B483B000AF78600B467B80FF
:10054C0013467B707B78002B03D07A887B681A610A
:10055C0003E07B881A047B681A6100BF0C37BD4628
:10056C0080BC704780B400AF084B5B69C3F30003D9
:10057C00DBB2002B05D0054B5B69044A43F0010349
:10058C00536100BFBD4680BC704700BF00040140F2
:10059C0080B400AF074B1B6803F00103002B05D0A0
:1005AC00044B1B68034A23F00103136000BFBD46D4
:1005BC0080BC70471000004080B483B000AF7860FE
:1005CC00134B07221A60134A7B681360124B0022EC
:1005DC001A604FF080431B684FF0804243F00103D8
:1005EC00136000BF0C4B1B687A689A42FAD84FF024
:1005FC0080431B684FF0804223F001031360064BCD
:10060C0000221A6000BF0C37BD4680BC704700BF8B
:10061C00280000402C0000402400004080B483B02F
:10062C0000AF7860134B41F63F721A60124A7B6838
:10063C001360124B00221A604FF080431B684FF07E
:10064C00804243F00103136000BF0C4B1B687A68B7
:10065C009A42FAD84FF080431B684FF0804223F047
:10066C0001031360054B00221A6000BF0C37BD4616
:10067C0080BC7047280000402C0000402400004043
:10068C0080B400AF204B07221A60204B4FF6FF724C
:10069C001A601F4B1B681E4A23F0030313601C4B8C
:1006AC001B681B4A43F001031360194B184A1B6863
:1006BC001360184B174A1B681360154B144A1B68C0
:1006CC001360144B1B68134A43F001031360124B65
:1006DC001B68114A43F002031360104B1B680F4A4E
:1006EC0043F0800313600D4B1B680C4A43F001036D
:1006FC0013600B4B1B680A4A43F00053136000BF96
:10070C00BD4680BC704700BF280400402C0400404C
:10071C0018040040200400400C0400400004004079
:10072C0000E100E080B400AF1C4B1B6803F0020337
:10073C00002B2FD0194B1B68184A23F002031360AF
:10074C00174B1B78002B0DD1164B1B68164A1360E8
:10075C00134B01221A70154B1B68144A43F0020309
:10076C00136017E00F4B1B68114A1360104B1A688B
:10077C000D4B1B68D31A0F4AA2FB03235B090E4ACD
:10078C001360074B00221A70084B1B68074A23F0B2
:10079C000203136000BFBD4680BC704710040040CC
:1007AC008C00002034040040800000202004004015
:1007BC008400002009CB3D8D8800002080B582B0DC
:1007CC0000AF084B1B6803F02003002B06D0064B30
:1007DC001B68FB71FB79184600F008F800BF08375E
:1007EC00BD4680BD003801400438014080B483B060
:1007FC0000AF0346FB7100BF064B1B6803F0800380
:10080C00002BF9D0044AFB79136000BF0C37BD46AE
:10081C0080BC7047003801400438014080B489B076
:10082C0000AFF8607A601A460B467B8113463B8119
:10083C000023FB613B8901335B107B610023BB61AF
:10084C007B895B001A46FB68134403F58063BB612C
:10085C007B68002B23D00023FB611BE07B681B789B
:10086C007B827B6801337B607B681B781BB21B022D
:10087C001AB2B7F9123013431BB23B82BB693A8AE6
:10088C001A80BB690433BB617B6801337B60FB69F5
:10089C000133FB61FA697B699A42DFD300E000BF48
:1008AC002437BD4680BC704780B489B000AFF86077
:1008BC007A601A460B467B8113463B810023FB6111
:1008CC003B8901335B107B610023BB617B895B003F
:1008DC001A46FB68134403F58063BB610023FB617C
:1008EC000CE0BB691A887B681A80BB690433BB6156
:1008FC007B6802337B60FB690133FB61FA697B69BE
:10090C009A42EED300BF00BF2437BD4680BC70476F
:10091C0080B483B000AF03460A46FB711346BB801C
:10092C00FB790F2B05D8FB79BA88D1B2034AD15485
:10093C0000E000BF0C37BD4680BC70479000002023
:10094C0080B483B000AF0346FB71FB790F2B01D948
:10095C00002302E0FB79034AD35C18460C37BD46F2
:10096C0080BC70479000002080B584B000AF034677
:10097C00FB710B46BB8013467B800023FB8197F9F0
:10098C000730002B13DAFB7903F00F03FB71FB79B3
:10099C0003F1806303F5C0631B011A46BB88138007
:1009AC007A88FB7911461846FFF7B2FF28E0FB79ED
:1009BC0003F00F03FB717B883E2B0CD97B889B09C2
:1009CC00FB81FB899B02FB81FB896FEA43436FEA46
:1009DC005343FB8106E07B8801335B08FB81FB8979
:1009EC009B02FB81FB791A01074B13441A46BB8807
:1009FC001380FB791A01054B13441A46FB891380AB
:100A0C0000BF1037BD4680BD086000400C60004040
:100A1C0080B485B000AF78600023FB7305E0FB7BEE
:100A2C000133FB737B6801337B607B681B78002B85
:100A3C00F5D1FB7B18461437BD4680BC704780B59A
:100A4C0086B000AFF860B9607A600023FB75FB6874
:100A5C00002B33D0F868FFF7DBFF034601339BB262
:100A6C005B009AB27B681A807B681A88FB7D591CE4
:100A7C00F9751946BB680B44D2B21A70FB7D5A1C2F
:100A8C00FA751A46BB68134403221A7012E0FB680D
:100A9C005A1CFA60FA7D511CF9751146BA680A4461
:100AAC001B781370FB7D5A1CFA751A46BB681344ED
:100ABC0000221A70FB681B78002BE8D100BF183796
:100ACC00BD4680BD90B585B000AF78600846114634
:100ADC001A460346FB700B46BB7013463B80002343
:100AEC00FB73BB7803F07F03FB73FA7B7B6853F8D3
:100AFC0022309BB223F4E04323F070039AB2FB78CC
:100B0C009BB25B029BB213439CB2FA7B21467B687F
:100B1C0043F82210FA7B7B6853F822309BB223F403
:100B2C00E04323F070039AB2FB7B9BB213439CB25D
:100B3C00FA7B21467B6843F8221097F90230002B90
:100B4C0037DAFA7B7B6853F82230C3F30113DBB23C
:100B5C0083F00203DBB21B019CB2FA7B7B6853F877
:100B6C0022309BB223F4E04323F070039BB2234367
:100B7C009CB2FA7B21467B6843F82210FA7B7B6897
:100B8C0053F82230C3F38013DBB29B019CB2FA7B87
:100B9C007B6853F822309BB223F4E04323F07003BC
:100BAC009BB223439CB2FA7B21467B6843F822100C
:100BBC0036E0FA7B7B6853F82230C3F30133DBB2A7
:100BCC0083F00303DBB21B039CB2FA7B7B6853F804
:100BDC0022309BB223F4E04323F070039BB22343F7
:100BEC009CB2FA7B21467B6843F82210FA7B7B6827
:100BFC0053F82230C3F38033DBB29B039CB2FA7BF5
:100C0C007B6853F822309BB223F4E04323F070034B
:100C1C009BB223439CB2FA7B21467B6843F822109B
:100C2C003A8C3988BB781846FFF79EFE00BF143704
:100C3C00BD4690BD80B582B002AF144AB2F84430C4
:100C4C0023F48063A2F844304023009318238022BD
:100C5C0001210E48FFF736FF402300935823002252
:100C6C0001210A48FFF72EFF084A92F84C3043F056
:100C7C00800382F84C30054A92F84C3023F07F0305
:100C8C0082F84C3000BFBD4680BD00BF005C004008
:100C9C0090B589B002AF786039600023FB810023E6
:100CAC00FB750023BB7500233B61994B00221A7026
:100CBC00984B3A681068516803C3964B5B881B0AC3
:100CCC009BB2FB75934B5B88BB75924B1B7803F007
:100CDC006003DBB2002B39D08E4B1B7803F0600322
:100CEC00DBB2202B40F02A828A4B5B78203B032B13
:100CFC0024D801A252F823F0390D0008150D000874
:100D0C003B1100083B110008834B07221A80834BD0
:100D1C00834A1A60834B1988834B1B88C3F30903DE
:100D2C009BB2824A7868FFF7BFFD07E2784B1B78CD
:100D3C0043F00203DAB2764B1A70FFE1744B1B7866
:100D4C0063F07F03DAB2724B1A70F7E1714B5B7888
:100D5C000B2B00F2EE8101A252F823F021110008B6
:100D6C00AF0F00083F110008691000083F11000880
:100D7C00E10E0008990D00083F110008070F00084C
:100D8C00690F00083F1100083F110008FB7D012B83
:100D9C0006D1614B12221A80604B654A1A60CDE174
:100DAC00FB7D022B0BD15B4BDB88432B28BF4323F2
:100DBC009AB2594B1A80594B5E4A1A60BEE1FB7DC0
:100DCC00062B0DD1544B00221A80544B00221A6072
:100DDC004F4B1B7863F07F03DAB24D4B1A70ADE1C9
:100DEC00FB7D032B6DD1BB7D052B5CD801A252F88A
:100DFC0023F000BF190E0008270E0008430E000850
:100E0C005F0E00087B0E0008970E0008424B042270
:100E1C001A80424B484A1A605BE007F10E031A46EF
:100E2C0046494748FFF70BFEFA893B4B1A803B4B70
:100E3C00424A1A604DE007F10E031A463F494148F9
:100E4C00FFF7FDFDFA89344B1A80344B3B4A1A608C
:100E5C003FE007F10E031A4638493B48FFF7EFFD18
:100E6C00FA892D4B1A802D4B344A1A6031E007F168
:100E7C000E031A4631493548FFF7E1FDFA89264B36
:100E8C001A80264B2D4A1A6023E007F10E031A46EE
:100E9C002A492F48FFF7D3FDFA891F4B1A801F4BA5
:100EAC00264A1A6015E01C4B00221A801B4B0022AC
:100EBC001A60174B1B7863F07F03DAB2144B1A706D
:100ECC0007E0134B1B7863F07F03DAB2104B1A70F8
:100EDC0034E133E10E4B1B7843F00103DAB20C4BD7
:100EEC001A700C4B5B88DAB21A4B1A700A4B002240
:100EFC001A800A4B00221A6020E1174B1A780B4B10
:100F0C001A70064B094A1A60034B01221A8015E12C
:100F1C003B010020300100208E000020E00000206A
:100F2C003C010020086000400C600040E400002000
:100F3C0004000020180000205C0000204801002064
:100F4C00581C00086C1C0008781C0008881C000841
:100F5C00941C00083A010020EE000020954B5B88A1
:100F6C00DAB2954B1A7040230093C02381220021E2
:100F7C009248FFF7A7FD402300934FF4887301229A
:100F8C0000218E48FFF79EFD082300934FF48073D9
:100F9C00822203218948FFF795FD894B01221A70A3
:100FAC00CCE0844B1B7803F01F03DBB2002B1BD16E
:100FBC00804B5B88DBB2012B0ED1824BDB7903F0CB
:100FCC002003002B40F0B7807F4B1B7863F07F032E
:100FDC00DAB27D4B1A70AEE07B4B1B7863F07F036B
:100FEC00DAB2794B1A70A6E0724B1B7803F01F0330
:100FFC00DBB2022B1ED16F4B9B88DBB2832B21D033
:10100C00832B0FDC822B1FD0822B0BDC812B1DD072
:10101C00812B07DC032B1BD0032B03DC012B19D0FA
:10102C00022B19D0684B1B7863F07F03DAB2664B46
:10103C001A7012E0644B1B7863F07F03DAB2624BD8
:10104C001A7078E000BF76E000BF74E000BF72E079
:10105C0000BF70E000BF6EE000BF6CE0554B1B782A
:10106C0003F01F03DBB2002B1AD1524B5B88DBB2AF
:10107C00012B0DD1534BDB7903F02003002B5CD1FA
:10108C00514B1B7863F07F03DAB24F4B1A7054E06C
:10109C004D4B1B7863F07F03DAB24B4B1A704CE06C
:1010AC00444B1B7803F01F03DBB2022B1ED1414BC8
:1010BC009B88DBB2832B21D0832B0FDC822B1FD0A0
:1010CC00822B0BDC812B1DD0812B07DC032B1BD03F
:1010DC00032B03DC012B19D0022B19D03A4B1B78B4
:1010EC0063F07F03DAB2384B1A7012E0364B1B7880
:1010FC0063F07F03DAB2344B1A701EE000BF1CE0C1
:10110C0000BF1AE000BF18E000BF16E000BF14E0FB
:10111C0000BF12E02D4B00221A702C4B00225A708B
:10112C002B4B02221A802B4B284A1A6006E000BF78
:10113C0004E000BF02E000BF00E000BF224B1B78C0
:10114C005BB2002B48DA204B1B7803F07F03DAB23A
:10115C001D4B1A707B681B68C3F30113DBB283F061
:10116C000103DBB21B019CB27B681B689BB223F4AE
:10117C00E04323F070039BB223439CB222467B686E
:10118C001A607B681B68C3F30133DBB283F0010385
:10119C00DBB21B039CB27B681B689BB223F4E0435D
:1011AC0023F070039BB223439CB222467B681A60E7
:1011BC00BDE000BF30010020EE000020005C0040CC
:1011CC0044010020180000203B010020E400002016
:1011DC008E000020E0000020564B1B7803F0020329
:1011EC00002B76D1544B1B683B61524B1B7803F0A0
:1011FC000103002B3ED10020FFF7A2FB03461A4649
:10120C004E4B1B889A4220D24D4C0020FFF798FB86
:10121C0003462380494B1C880020FFF791FB0346B3
:10122C00E31A9AB2454B1A80434B1C680020FFF717
:10123C0087FB03462344404A13603E4B1B7843F024
:10124C004003DAB23B4B1A7009E03D4B3B4A128823
:10125C001A803A4B00221A80374B00221A60394B05
:10126C001988374B1B88C3F309039BB23A6978681A
:10127C00FFF7D4FA7B681B68C3F30113DBB283F06E
:10128C000303DBB21B019CB27B681B689BB223F48B
:10129C00E04323F070039BB223439CB222467B684D
:1012AC001A607B681B68C3F38013DBB283F0010305
:1012BC00DBB29B019CB27B681B689BB223F4E043BE
:1012CC0023F070039BB223439CB222467B681A60C6
:1012DC002DE07B681B68C3F30133DBB283F003039F
:1012EC00DBB21B039CB27B681B689BB223F4E0430C
:1012FC0023F070039BB223439CB222467B681A6096
:10130C007B681B68C3F38033DBB283F00103DBB271
:10131C009B039CB27B681B689BB223F4E04323F0D5
:10132C0070039BB223439CB222467B681A601C3725
:10133C00BD4690BD3B010020E00000208E00002047
:10134C00046000400060004090B585B000AF78604C
:10135C000B46FB70FB78002B40F0EB80994B1B7815
:10136C0003F00103002B40F08C80964B1B7843F06C
:10137C000103DAB2934B1A70FB781A01924B1344A7
:10138C001988FB781A01914B13441B88C3F309038A
:10139C009BB28F4A7868FFF787FA8E4B5B78202BCD
:1013AC0017D18C4BDB88082B28BF0823BB8100236B
:1013BC00FB7309E0FA7BFB7B87490B4484498A5C0D
:1013CC001A70FB7B0133FB73FB7B9BB2BA899A428D
:1013DC00F0D8FA787B6853F82230C3F30113DBB2F0
:1013EC0083F00303DBB21B019CB2FA787B6853F8E1
:1013FC0022309BB223F4E04323F070039BB22343CF
:10140C009CB2FA7821467B6843F82210FA787B6804
:10141C0053F82230C3F38013DBB283F00103DBB249
:10142C009B019CB2FA787B6853F822309BB223F470
:10143C00E04323F070039BB223439CB2FA7821461D
:10144C007B6843F82210FA787B6853F82230C3F398
:10145C000133DBB283F00203DBB21B039CB2FA78DC
:10146C007B6853F822309BB223F4E04323F07003E3
:10147C009BB223439CB2FA7821467B6843F8221036
:10148C009CE0504B00221A70FA787B6853F822309B
:10149C00C3F30133DBB283F00303DBB21B039CB257
:1014AC00FA787B6853F822309BB223F4E04323F0A4
:1014BC0070039BB223439CB2FA7821467B6843F8B5
:1014CC002210FA787B6853F82230C3F38033DBB2F6
:1014DC009B039CB2FA787B6853F822309BB223F4BE
:1014EC00E04323F070039BB223439CB2FA7821466D
:1014FC007B6843F82210FA787B6853F82230C3F3E8
:10150C000113DBB283F00203DBB21B019CB2FA784D
:10151C007B6853F822309BB223F4E04323F0700332
:10152C009BB223439CB2FA7821467B6843F8221085
:10153C0044E0244B1B7803F00403002B3ED1214BD9
:10154C001B7843F00403DAB21E4B1A70FB781A01B5
:10155C001E4B13441B88C3F309039AB21F4B1A800A
:10156C00FB781A01184B13441988FB781A01174B96
:10157C0013441B88C3F309039BB2194A1948FFF79C
:10158C0093F9184AFB7852F82330C3F30133DBB2DA
:10159C0083F00303DBB21B039CB2124AFB7852F8B4
:1015AC0023309BB223F4E04323F070039BB223431C
:1015BC009CB20C4AFB78214642F8231000BF14372A
:1015CC00BD4690BD3B010020086000400C6000400F
:1015DC00A0000020300100203C0100203801002038
:1015EC00F0000020005C004090B585B000AF786042
:1015FC000B46FB70A84B1B7803F00103002B40F04B
:10160C005381A64B1B68FB60FB781846FFF798F9D3
:10161C0003461A46A24B1B889A426DD2FB781A01DC
:10162C00A04B13441C46FB781846FFF789F9034678
:10163C0023809B4B1C88FB781846FFF781F90346E7
:10164C00E31A9AB2964B1A80944B1C68FB78184696
:10165C00FFF776F903462344904A1360FA787B68C7
:10166C0053F82230C3F30133DBB283F00203DBB255
:10167C001B039CB2FA787B6853F822309BB223F49C
:10168C00E04323F070039BB223439CB2FA782146CB
:10169C007B6843F82210FA787B6853F82230C3F346
:1016AC000113DBB283F00303DBB21B019CB2FA78AB
:1016BC007B6853F822309BB223F4E04323F0700391
:1016CC009BB223439CB2FA7821467B6843F82210E4
:1016DC00FB7803F1806303F5C0631B011988FB7869
:1016EC001A01704B13441B88C3F309039BB2FA68AD
:1016FC007868FFF793F841E1FB781A01694B1344C2
:10170C001A46674B1B881380654B00221A80634B6B
:10171C0000221A60604B1B7823F00803DAB25E4B90
:10172C001A705D4B1B7803F04003002B54D05A4BBE
:10173C001B7823F04003DAB2574B1A70FA787B68A7
:10174C0053F82230C3F30133DBB283F00203DBB274
:10175C001B039CB2FA787B6853F822309BB223F4BB
:10176C00E04323F070039BB223439CB2FA782146EA
:10177C007B6843F82210FA787B6853F82230C3F365
:10178C000113DBB283F00303DBB21B019CB2FA78CA
:10179C007B6853F822309BB223F4E04323F07003B0
:1017AC009BB223439CB2FA7821467B6843F8221003
:1017BC00FB7803F1806303F5C0631B011988FB7888
:1017CC001A01384B13441B88C3F309039BB2FA6804
:1017DC007868FFF723F8D1E02F4B1B7843F0030315
:1017EC00DAB22D4B1A70FA787B6853F82230C3F3B7
:1017FC000133DBB283F00303DBB21B039CB2FA7838
:10180C007B6853F822309BB223F4E04323F070033F
:10181C009BB223439CB2FA7821467B6843F8221092
:10182C00FA787B6853F82230C3F30113DBB283F0F0
:10183C000203DBB21B019CB2FA787B6853F82230AE
:10184C009BB223F4E04323F070039BB223439CB27E
:10185C00FA7821467B6843F82210FA787B6853F8B3
:10186C002230C3F38033DBB283F00103DBB29B0382
:10187C009CB2FA787B6853F822309BB223F4E04395
:10188C0023F070039BB223439CB2FA7821467B6809
:10189C0043F8221072E000BF3B010020E000002062
:1018AC008E00002004600040364B00221A70FA783B
:1018BC007B6853F82230C3F30133DBB283F00303AC
:1018CC00DBB21B039CB2FA787B6853F822309BB2D4
:1018DC0023F4E04323F070039BB223439CB2FA78C9
:1018EC0021467B6843F82210FA787B6853F8223043
:1018FC00C3F30113DBB283F00203DBB21B019CB216
:10190C00FA787B6853F822309BB223F4E04323F03F
:10191C0070039BB223439CB2FA7821467B6843F850
:10192C002210FA787B6853F82230C3F38033DBB291
:10193C009B039CB2FA787B6853F822309BB223F459
:10194C00E04323F070039BB223439CB2FA78214608
:10195C007B6843F822100C4B1B78002B0ED00B4BE2
:10196C001B88002B0AD1084B1B7863F07F03DBB27A
:10197C001A467B68DA64044B00221A7000BF1437D5
:10198C00BD4690BD3B0100203A0100208E00002096
:10199C0090B583B000AF0023FB710023BB80CBE07C
:1019AC006C4B5B6CC3F30303DBB21A466A4B1A70C5
:1019BC00694B1B78002B76D1664B5B6CC3F3001321
:1019CC00DBB2002B4DD0634B634A127853F82230B4
:1019DC00C3F3C023DBB2002B21D0604B1B88FB71FF
:1019EC005F4B1B88BB80FB799BB2B9885D4A594819
:1019FC00FEF75AFF574B584A127853F822309AB2D6
:101A0C0040F68F7313409CB2524B534A12782146C6
:101A1C0043F8221053494F48FFF73AF98CE04D4BED
:101A2C004D4A127853F82230C3F3C033DBB2002B8B
:101A3C0000F08280474B484A127853F822309AB211
:101A4C0040F68F7313409CB2424B434A12782146A6
:101A5C0043F82210404B1B7819463E48FFF774FCA4
:101A6C006AE03C4B3C4A127853F82230C3F3C01363
:101A7C00DBB2002B60D0374B374A127853F8223048
:101A8C009BB223F4E14323F070039CB2314B324AF6
:101A9C001278214643F822102F4B1B7819462D48FB
:101AAC00FFF7A2FD48E02B4B5B6CC3F30013DBB2DA
:101ABC00002B20D0274B284A127853F82230C3F33E
:101ACC00C033DBB2002B37D0224B234A127853F8A9
:101ADC0022309AB240F68F7313409CB21D4B1E4AB3
:101AEC001278214643F822101B4B1B7819461948D3
:101AFC00FFF72AFC20E0174B174A127853F82230D4
:101B0C00C3F3C013DBB2002B16D0124B124A12785F
:101B1C0053F822309BB223F4E14323F070039CB2C0
:101B2C000C4B0D4A1278214643F822100A4B1B78B5
:101B3C0019460848FFF758FD064B5B6CC3F3C033DE
:101B4C00DBB2002B7FF42CAF00BF00BF0C37BD46BF
:101B5C0090BD00BF005C00408D0000200C60004078
:101B6C0008600040A000002080B500AF254B5B6CE6
:101B7C00C3F38023DBB2002B01D0FFF75BF8214BC2
:101B8C005B6CC3F3C033DBB2002B01D0FFF700FF5B
:101B9C001C4B5B6CC3F34033DBB2002B06D0194AF1
:101BAC00B2F8443023F40053A2F84430154B5B6C6C
:101BBC00C3F34023DBB2002B06D0124AB2F84430F8
:101BCC0023F40073A2F844300E4B5B6CC3F3002378
:101BDC00DBB2002B06D00B4AB2F8443023F48073EE
:101BEC00A2F84430074B5B6CC3F3C023DBB2002B71
:101BFC0006D0044AB2F8443023F40063A2F844300F
:101C0C0000BF80BD005C004080B400AF074B1B6878
:101C1C0003F00073002B05D0054B1B68044A43F0FE
:101C2C000073136000BFBD4680BC704700000240CB
:101C3C0004000240F8B500BFF8BC08BC9E467047D3
:0C1C4C00F8B500BFF8BC08BC9E4670470D
:101C580053544D6963726F656C656374726F6E6916
:101C680063730000486F632063756E6720455400F6
:101C7800303030303030303030303141000000000A
:101C880043444320436F6E66696700004344432022
:0C1C9800496E74657266616365000000AF
:041CA4003101000802
:041CA8000D01000822
:101CAC0001000000120100020200004034127856BC
:101CBC00000201020301000009024300020100C0FE
:101CCC003209040000010202010005240010010584
:101CDC0024010001042402020524060001070582E8
:101CEC000308001009040100020A000000070501A6
:101CFC0002400000070581024000000004030904B3
:04000005080002AD40
:00000001FF
