:020000040800F2
:1000000000500020C108000899070008A107000857
:10001000A9070008B1070008B907000800000000A0
:10002000000000000000000000000000C107000800
:10003000CD07000800000000D9070008E507000808
:100040000909000809090008090900080909000848
:100050000909000809090008850B000809090008BA
:100060000909000809090008090900080909000828
:100070000909000809090008090900080909000818
:1000800009090008252300080909000809090008D2
:100090008522000809090008090900080909000863
:1000A00009090008090900080909000809090008E8
:1000B000B10B0008E10C0008090900080909000853
:1000C00009090008090900080909000809090008C8
:1000D00009090008010E00080909000809090008BB
:1000E00009090008090900080909000800000000C2
:1000F0000000000000000000000000000000000000
:0C01000000000000000000005FF808F1A3
:10010C0010B5054C237833B9044B13B10448AFF345
:10011C0000800123237010BDB800002000000000F7
:10012C00AC2A000808B5034B1BB103490348AFF3D5
:10013C00008008BD00000000BC000020AC2A0008B4
:10014C0070B500260C4D0D4C641BA410A64209D1B1
:10015C0002F0A6FC00260A4D0A4C641BA410A64211
:10016C0005D170BD55F8043B98470136EEE755F8BC
:10017C00043B98470136F2E74C2B00084C2B000847
:10018C004C2B0008502B00087047704738B50546BB
:10019C00002940D051F8043C0C1F002BB8BFE418C8
:1001AC0000F0DEF81C4A136833B96360146028460B
:1001BC00BDE8384000F0DAB8A34208D9206821180D
:1001CC008B4201BF19685B6809182160EDE71A467C
:1001DC005B680BB1A342FAD911685018A0420BD13D
:1001EC0020680144501883421160E0D118685B68A4
:1001FC00084410605360DAE702D90C232B60D6E771
:10020C00206821188B4201BF19685B6809182160AE
:10021C0063605460CBE738BD1802002070B50F4EF8
:10022C000C463168054611B900F0A6F8306021463D
:10023C00284600F0A1F8431C03D14FF0FF342046B0
:10024C0070BDC41C24F00304A042F8D0211A284627
:10025C0000F092F80130F2D1EFE700BF1402002059
:10026C002DE9F843CD1C25F0030508350C2D38BFBE
:10027C000C25002D064601DBA94204D90C23336062
:10028C000020BDE8F883DFF8D48000F069F8D8F8D6
:10029C0000301C4644BB29463046FFF7BFFF431CC9
:1002AC00044658D1D8F800402746002F43D1002CE3
:1002BC004BD023683946304604EB030900F05CF858
:1002CC00814542D1216830466D1A2946FFF7A6FFB9
:1002DC0001303AD023682B442360D8F800305A6898
:1002EC0062BBC8F800700FE02268521B20D40B2AA6
:1002FC0017D96119A342256018BF5960636808BFFC
:10030C00C8F8001062514B60304600F02FF804F131
:10031C000B00231D20F00700C21A1CBF1B1AA35090
:10032C00AFE76268A3420CBFC8F800205A60EBE745
:10033C0023466468AEE73C467F68B6E71A465B68BE
:10034C00A342FBD100235360DEE70C23304633601D
:10035C0000F00CF894E70560D6E700BF1802002007
:10036C000148FFF711BF00BF100200200148FFF742
:10037C000CBF00BF1002002038B50023054D044609
:10038C0008462B6000F060FA431C02D12B6803B1C5
:10039C00236038BD0C02002080B400AF00BFBD4606
:1003AC0080BC704780B500AF084B1B68074A43F010
:1003BC0010031360032000F007F90F2000F008F879
:1003CC0000F010FA0023184680BD00BF0020024048
:1003DC0080B582B000AF7860124B1A68124B1B7854
:1003EC0019464FF47A73B3FBF1F3B2FBF3F31846EF
:1003FC0000F011F90346002B01D001230EE07B68BD
:10040C000F2B0AD8002279684FF0FF3000F0E7F884
:10041C00064A7B681360002300E001231846083766
:10042C00BD4680BD50000020580000205400002024
:10043C0080B400AF054B1B781A46054B1B68134460
:10044C00034A136000BFBD4680BC704758000020B3
:10045C001C02002080B400AF024B1B681846BD463E
:10046C0080BC70471C02002080B485B000AF78605F
:10047C007B6803F00703FB600C4BDB68BB60BA685E
:10048C004FF6FF031340BB60FB681A02BB681343B3
:10049C0043F0BF6343F40033BB60044ABB68D360D2
:1004AC0000BF1437BD4680BC704700BF00ED00E0B4
:1004BC0080B400AF044BDB681B0A03F0070318463B
:1004CC00BD4680BC704700BF00ED00E080B483B037
:1004DC0000AF03463960FB7197F90730002B0ADB3C
:1004EC003B68DAB20C4997F907301201D2B20B44CF
:1004FC0083F800230AE03B68DAB20849FB7903F081
:10050C000F03043B1201D2B20B441A7600BF0C3716
:10051C00BD4680BC704700BF00E100E000ED00E08C
:10052C0080B489B000AFF860B9607A60FB6803F002
:10053C000703FB61FB69C3F10703042B28BF0423EA
:10054C00BB61FB690433062B02D9FB69033B00E05A
:10055C0000237B614FF0FF32BB6902FA03F3DA43ED
:10056C00BB681A407B699A404FF0FF317B6901FAF6
:10057C0003F3D9437B680B40134318462437BD461D
:10058C0080BC704780B582B000AF78607B68013B5F
:10059C00B3F1807F01D301230FE00A4A7B68013B52
:1005AC0053600F214FF0FF30FFF790FF054B0022F7
:1005BC009A60044B07221A60002318460837BD4680
:1005CC0080BD00BF10E000E080B582B000AF786065
:1005DC007868FFF749FF00BF0837BD4680BD80B57E
:1005EC0086B000AF0346B9607A60FB7300237B6171
:1005FC00FFF75EFF78617A68B9687869FFF790FF5A
:10060C00024697F90F3011461846FFF75FFF00BFFF
:10061C001837BD4680BD80B582B000AF7860786871
:10062C00FFF7B0FF034618460837BD4680BD0000F3
:10063C0080B584B000AFFFF7B5FE00F06FF900F0A5
:10064C007BF900F05DF900F085F900F091F900F00C
:10065C009DF900F0A9F900F0B5F900F0C1F92F4BA4
:10066C00BB60BB684FF080721A60032240212C489B
:10067C0000F0C8F9002240212A4800F0C3F90122F9
:10068C008021284800F0BEF901224FF48051244803
:10069C0000F0B8F900F0CCFA00F0DCFB00F06CFBD9
:1006AC00FA23FB6034E0FB68184600F095FB03204E
:1006BC0001F048FE00F03CF878607B68002B23D0FA
:1006CC007B68B3F5C87F1FD87B68002B09D07B688B
:1006DC00322B06D801224FF48051114800F034FA25
:1006EC0005E000224FF480510D4800F02DFAFB6814
:1006FC007A680D490D4801F057FE0C4800F000FCDB
:10070C00052001F01FFE00E000BFFB680A33FB6010
:10071C00FB6840F2E2429342C5DDC1E704000140B0
:10072C00000C014000080140C42A000820020020EF
:10073C0080B582B000AF01228021124800F004FA8B
:10074C000F2000F043FA002280210E4800F0FCF943
:10075C00FFF780FE03467B6006E00B4B1B68002B0B
:10076C0002D0094B1B6808E0FFF774FE03461A46DB
:10077C007B68D31A3B2BF0D9002318460837BD46AB
:10078C0080BD00BF000801404002002080B400AFD3
:10079C0000BFFDE780B400AF00BFFDE780B400AF41
:1007AC0000BFFDE780B400AF00BFFDE780B400AF31
:1007BC0000BFFDE780B400AF00BFBD4680BC7047F2
:1007CC0080B400AF00BFBD4680BC704780B400AFA2
:1007DC0000BFBD4680BC704780B500AFFFF728FE58
:1007EC0000BF80BD80B485B000AF154B9B69144A27
:1007FC0043F001039361124B9B6903F00103BB604F
:10080C00BB680F4BDB690E4A43F08053D3610C4B32
:10081C00DB6903F080537B607B680A4B5B68FB6091
:10082C00FB6823F0E063FB60FB6843F00073FB6044
:10083C00044AFB68536000BF1437BD4680BC704748
:10084C00001002400000014080B586B000AF786017
:10085C00144A154BD31A7B617B693B61134B1B68A4
:10086C00002B02D1114B124A1A60104B1A687B688C
:10087C0013443A699A4207D201F0B8FD03460C22A0
:10088C001A604FF0FF3309E0084B1B68FB60074B05
:10089C001A687B681344054A1360FB6818461837BE
:1008AC00BD4680BD00500020000400003402002032
:1008BC0000050020FFF770FD0B480C490C4A002383
:1008CC0002E0D458C4500433C4188C42F9D3094AFA
:1008DC00094C002301E013600432A242FBD3FFF762
:1008EC002FFCFFF7A5FE704700000020B800002089
:1008FC00542B0008B800002000050020FEE7000083
:10090C0080B400AF044A936943F00403936100BFC1
:10091C00BD4680BC704700BF0010024080B400AFE1
:10092C00044A936943F00803936100BFBD4680BC41
:10093C00704700BF0010024080B400AF044A9369B6
:10094C0043F01003936100BFBD4680BC704700BFED
:10095C000010024080B400AF044A936943F00103D5
:10096C00936100BFBD4680BC704700BF00100240C1
:10097C0080B400AF044AD36943F00103D36100BFD4
:10098C00BD4680BC704700BF0010024080B400AF71
:10099C00044AD36943F00203D36100BFBD4680BC57
:1009AC00704700BF0010024080B400AF044AD36906
:1009BC0043F00403D36100BFBD4680BC704700BF49
:1009CC000010024080B400AF044AD36943F40033F2
:1009DC00D36100BFBD4680BC704700BF0010024011
:1009EC0080B400AF064A536943F001035361044AD3
:1009FC00536943F00203536100BFBD4680BC70478E
:100A0C000010024080B487B000AFF8600B467A60EB
:100A1C007B8100237B6100233B6100237B6188E0A9
:100A2C007A897B6942FA03F303F00103002B7DD032
:100A3C007B69072B0BD8FB681A687B699B000F211D
:100A4C0001FA03F3DB431A40FB681A600BE0FB6806
:100A5C005A687B69083B9B000F2101FA03F3DB43C7
:100A6C001A40FB685A607B68072B3ED801A252F8EB
:100A7C0023F000BFBF0A0008A10A0008A70A00085B
:100A8C00AD0A0008B30A0008B90A0008C50A000834
:100A9C00DD0A000803233B6127E007233B6124E0C8
:100AAC000B233B6121E00F233B611EE000233B61E4
:100ABC001BE004233B6118E008233B61FB68DB6807
:100ACC0001217A6901FA02F21A43FB68DA600CE040
:100ADC0008233B61FB68DB6801217A6901FA02F2A9
:100AEC00D2431A40FB68DA6000BF7B68002B04D04D
:100AFC007B68072B01D07B68062B7B69072B0AD8F8
:100B0C00FB681A687B699B00396901FA03F31A4385
:100B1C00FB681A600AE0FB685A687B69083B9B001B
:100B2C00396901FA03F31A43FB685A607B69013394
:100B3C007B617B690F2B7FF673AF00BF00BF1C3747
:100B4C00BD4680BC704700BF80B483B000AF7860F6
:100B5C000B467B8013467B707B78002B03D07A8806
:100B6C007B681A6103E07B881A047B681A6100BFFA
:100B7C000C37BD4680BC704780B400AF084B5B6936
:100B8C00C3F30003DBB2002B05D0054B5B69044AB1
:100B9C0043F00103536100BFBD4680BC704700BFEA
:100BAC000004014080B400AF074B1B6803F0010345
:100BBC00002B05D0044B1B68034A23F00103136080
:100BCC0000BFBD4680BC70471000004080B483B0AD
:100BDC0000AF7860134B07221A60134A7B681360CE
:100BEC00124B00221A604FF080431B684FF080427A
:100BFC0043F00103136000BF0C4B1B687A689A42E8
:100C0C00FAD84FF080431B684FF0804223F0010369
:100C1C001360064B00221A6000BF0C37BD4680BC27
:100C2C00704700BF280000402C000040240000400A
:100C3C0080B400AF204B07221A60204B4FF6FF7296
:100C4C001A601F4B1B681E4A23F0030313601C4BD6
:100C5C001B681B4A43F001031360194B184A1B68AD
:100C6C001360184B174A1B681360154B144A1B680A
:100C7C001360144B1B68134A43F001031360124BAF
:100C8C001B68114A43F002031360104B1B680F4A98
:100C9C0043F0800313600D4B1B680C4A43F00103B7
:100CAC0013600B4B1B680A4A43F00053136000BFE0
:100CBC00BD4680BC704700BF280400402C04004097
:100CCC0018040040200400400C04004000040040C4
:100CDC0000E100E080B400AF1E4B1B6803F0020380
:100CEC00002B32D01B4B1B681A4A23F002031360F3
:100CFC00194B1B78002B0DD1184B1B68184A13602D
:100D0C00154B01221A70174B1B68164A43F002034D
:100D1C0013601AE0114B1B68134A1360124B1A68CC
:100D2C000F4B1B68D31A114AA2FB03235B09104A11
:100D3C001360094B00221A700A4B1B68094A23F0F6
:100D4C00020313600B4B00221A6000BFBD4680BC2F
:100D5C00704700BF100400404402002034040040DF
:100D6C0038020020200400403C02002009CB3D8DBD
:100D7C00400200202404004080B400AF114B1B68DB
:100D8C00104A23F0700313600E4B1B680D4A43F09E
:100D9C00600313600C4B1B680B4A43F00103136098
:100DAC000A4B0F221A600A4B42F20F721A60094B5F
:100DBC001B68084A43F00103136000BFBD4680BCAA
:100DCC00704700BF18080040200800402808004069
:100DDC002C0800400008004080B483B000AF78605D
:100DEC00034A7B68136000BF0C37BD4680BC70475C
:100DFC003408004080B582B000AF084B1B6803F08C
:100E0C002003002B06D0064B1B68FB71FB791846A0
:100E1C0000F008F800BF0837BD4680BD003801401F
:100E2C000438014080B483B000AF0346FB7100BFAF
:100E3C00064B1B6803F08003002BF9D0044AFB79A6
:100E4C00136000BF0C37BD4680BC704700380140B2
:100E5C000438014080B500AF032204211348FFF78A
:100E6C00D1FD002208211148FFF7CCFD104B1B6867
:100E7C000F4A43F4005313600D4B0D4A1B6813606B
:100E8C000C4B0C4A1B6813600B4B40F241321A603E
:100E9C00074B1B68064A43F008031360074B1B689B
:100EAC00064A43F08003136000BF80BD0008014078
:100EBC000C440040104400400844004014440040DE
:100ECC0080B483B000AF0346FB7100BF0A4B1B68B4
:100EDC0003F08003002BF9D0084AFB79136000BFA4
:100EEC00054B1B6803F04003002BF9D000BF00BF7B
:100EFC000C37BD4680BC70470044004004440040A1
:100F0C0080B582B000AF786006E07B685A1C7A60CE
:100F1C001B781846FFF7D4FF7B681B78002BF4D1A5
:100F2C0000BF00BF0837BD4680BD80B489B000AF9C
:100F3C00F8607A601A460B467B8113463B8100238E
:100F4C00FB613B8901335B107B610023BB617B89B7
:100F5C005B001A46FB68134403F58063BB617B6836
:100F6C00002B23D00023FB611BE07B681B787B826A
:100F7C007B6801337B607B681B781BB21B021AB247
:100F8C00B7F9123013431BB23B82BB693A8A1A8001
:100F9C00BB690433BB617B6801337B60FB69013344
:100FAC00FB61FA697B699A42DFD300E000BF24370A
:100FBC00BD4680BC704780B489B000AFF8607A60E1
:100FCC001A460B467B8113463B810023FB613B8910
:100FDC0001335B107B610023BB617B895B001A468C
:100FEC00FB68134403F58063BB610023FB610CE0D9
:100FFC00BB691A887B681A80BB690433BB617B6848
:10100C0002337B60FB690133FB61FA697B699A42AD
:10101C00EED300BF00BF2437BD4680BC7047000034
:10102C0080B483B000AF03460A46FB711346BB8005
:10103C00FB790F2B05D8FB79BA88D1B2034AD1546E
:10104C0000E000BF0C37BD4680BC70474802002052
:10105C0080B483B000AF0346FB71FB790F2B01D931
:10106C00002302E0FB79034AD35C18460C37BD46DB
:10107C0080BC70474802002080B584B000AF0346A6
:10108C00FB710B46BB8013467B800023FB8197F9D9
:10109C000730002B13DAFB7903F00F03FB71FB799C
:1010AC0003F1806303F5C0631B011A46BB881380F0
:1010BC007A88FB7911461846FFF7B2FF28E0FB79D6
:1010CC0003F00F03FB717B883E2B0CD97B889B09AB
:1010DC00FB81FB899B02FB81FB896FEA43436FEA2F
:1010EC005343FB8106E07B8801335B08FB81FB8962
:1010FC009B02FB81FB791A01074B13441A46BB88F0
:10110C001380FB791A01054B13441A46FB89138093
:10111C0000BF1037BD4680BD086000400C60004029
:10112C0080B485B000AF78600023FB7305E0FB7BD7
:10113C000133FB737B6801337B607B681B78002B6E
:10114C00F5D1FB7B18461437BD4680BC704780B583
:10115C0086B000AFF860B9607A600023FB75FB685D
:10116C00002B33D0F868FFF7DBFF034601339BB24B
:10117C005B009AB27B681A807B681A88FB7D591CCD
:10118C00F9751946BB680B44D2B21A70FB7D5A1C18
:10119C00FA751A46BB68134403221A7012E0FB68F6
:1011AC005A1CFA60FA7D511CF9751146BA680A444A
:1011BC001B781370FB7D5A1CFA751A46BB681344D6
:1011CC0000221A70FB681B78002BE8D100BF18377F
:1011DC00BD4680BD90B585B000AF7860084611461D
:1011EC001A460346FB700B46BB7013463B8000232C
:1011FC00FB73BB7803F07F03FB73FA7B7B6853F8BC
:10120C0022309BB223F4E04323F070039AB2FB78B4
:10121C009BB25B029BB213439CB2FA7B21467B6868
:10122C0043F82210FA7B7B6853F822309BB223F4EC
:10123C00E04323F070039AB2FB7B9BB213439CB246
:10124C00FA7B21467B6843F8221097F90230002B79
:10125C0037DAFA7B7B6853F82230C3F30113DBB225
:10126C0083F00203DBB21B019CB2FA7B7B6853F860
:10127C0022309BB223F4E04323F070039BB2234350
:10128C009CB2FA7B21467B6843F82210FA7B7B6880
:10129C0053F82230C3F38013DBB29B019CB2FA7B70
:1012AC007B6853F822309BB223F4E04323F07003A5
:1012BC009BB223439CB2FA7B21467B6843F82210F5
:1012CC0036E0FA7B7B6853F82230C3F30133DBB290
:1012DC0083F00303DBB21B039CB2FA7B7B6853F8ED
:1012EC0022309BB223F4E04323F070039BB22343E0
:1012FC009CB2FA7B21467B6843F82210FA7B7B6810
:10130C0053F82230C3F38033DBB29B039CB2FA7BDD
:10131C007B6853F822309BB223F4E04323F0700334
:10132C009BB223439CB2FA7B21467B6843F8221084
:10133C003A8C3988BB781846FFF79EFE00BF1437ED
:10134C00BD4690BD80B582B002AF144AB2F84430AD
:10135C0023F48063A2F844304023009318238022A6
:10136C0001210E48FFF736FF40230093582300223B
:10137C0001210A48FFF72EFF084A92F84C3043F03F
:10138C00800382F84C30054A92F84C3023F07F03EE
:10139C0082F84C3000BFBD4680BD00BF005C0040F1
:1013AC0090B589B002AF786039600023FB810023CF
:1013BC00FB750023BB7500233B61994B00221A700F
:1013CC00984B3A681068516803C3964B5B881B0AAC
:1013DC009BB2FB75934B5B88BB75924B1B7803F0F0
:1013EC006003DBB2002B39D08E4B1B7803F060030B
:1013FC00DBB2202B40F02A828A4B5B78203B032BFC
:10140C0024D801A252F823F049140008251400082E
:10141C004B1800084B180008834B07221A80834B8B
:10142C00834A1A60834B1988834B1B88C3F30903C7
:10143C009BB2824A7868FFF7BEFD07E2784B1B78B7
:10144C0043F00203DAB2764B1A70FFE1744B1B784F
:10145C0063F07F03DAB2724B1A70F7E1714B5B7871
:10146C000B2B00F2EE8101A252F823F03118000888
:10147C00BF1600084F180008791700084F1800080D
:10148C00F1150008A91400084F18000817160008D9
:10149C00791600084F1800084F180008FB7D012B27
:1014AC0006D1614B12221A80604B654A1A60CDE15D
:1014BC00FB7D022B0BD15B4BDB88432B28BF4323DB
:1014CC009AB2594B1A80594B5E4A1A60BEE1FB7DA9
:1014DC00062B0DD1544B00221A80544B00221A605B
:1014EC004F4B1B7863F07F03DAB24D4B1A70ADE1B2
:1014FC00FB7D032B6DD1BB7D052B5CD801A252F873
:10150C0023F000BF291500083715000853150008F3
:10151C006F1500088B150008A7150008424B042214
:10152C001A80424B484A1A605BE007F10E031A46D8
:10153C0046494748FFF70BFEFA893B4B1A803B4B59
:10154C00424A1A604DE007F10E031A463F494148E2
:10155C00FFF7FDFDFA89344B1A80344B3B4A1A6075
:10156C003FE007F10E031A4638493B48FFF7EFFD01
:10157C00FA892D4B1A802D4B344A1A6031E007F151
:10158C000E031A4631493548FFF7E1FDFA89264B1F
:10159C001A80264B2D4A1A6023E007F10E031A46D7
:1015AC002A492F48FFF7D3FDFA891F4B1A801F4B8E
:1015BC00264A1A6015E01C4B00221A801B4B002295
:1015CC001A60174B1B7863F07F03DAB2144B1A7056
:1015DC0007E0134B1B7863F07F03DAB2104B1A70E1
:1015EC0034E133E10E4B1B7843F00103DAB20C4BC0
:1015FC001A700C4B5B88DAB21A4B1A700A4B002229
:10160C001A800A4B00221A6020E1174B1A780B4BF8
:10161C001A70064B094A1A60034B01221A8015E115
:10162C00F3020020E802002046020020980200206D
:10163C00F4020020086000400C6000409C02002076
:10164C005C00002070000020B4000020000300208B
:10165C00CC2A0008E02A0008EC2A0008FC2A000822
:10166C00082B0008F2020020A6020020954B5B8894
:10167C00DAB2954B1A7040230093C02381220021CB
:10168C009248FFF7A7FD402300934FF48873012283
:10169C0000218E48FFF79EFD082300934FF48073C2
:1016AC00822203218948FFF795FD894B01221A708C
:1016BC00CCE0844B1B7803F01F03DBB2002B1BD157
:1016CC00804B5B88DBB2012B0ED1824BDB7903F0B4
:1016DC002003002B40F0B7807F4B1B7863F07F0317
:1016EC00DAB27D4B1A70AEE07B4B1B7863F07F0354
:1016FC00DAB2794B1A70A6E0724B1B7803F01F0319
:10170C00DBB2022B1ED16F4B9B88DBB2832B21D01B
:10171C00832B0FDC822B1FD0822B0BDC812B1DD05B
:10172C00812B07DC032B1BD0032B03DC012B19D0E3
:10173C00022B19D0684B1B7863F07F03DAB2664B2F
:10174C001A7012E0644B1B7863F07F03DAB2624BC1
:10175C001A7078E000BF76E000BF74E000BF72E062
:10176C0000BF70E000BF6EE000BF6CE0554B1B7813
:10177C0003F01F03DBB2002B1AD1524B5B88DBB298
:10178C00012B0DD1534BDB7903F02003002B5CD1E3
:10179C00514B1B7863F07F03DAB24F4B1A7054E055
:1017AC004D4B1B7863F07F03DAB24B4B1A704CE055
:1017BC00444B1B7803F01F03DBB2022B1ED1414BB1
:1017CC009B88DBB2832B21D0832B0FDC822B1FD089
:1017DC00822B0BDC812B1DD0812B07DC032B1BD028
:1017EC00032B03DC012B19D0022B19D03A4B1B789D
:1017FC0063F07F03DAB2384B1A7012E0364B1B7869
:10180C0063F07F03DAB2344B1A701EE000BF1CE0A9
:10181C0000BF1AE000BF18E000BF16E000BF14E0E4
:10182C0000BF12E02D4B00221A702C4B00225A7074
:10183C002B4B02221A802B4B284A1A6006E000BF61
:10184C0004E000BF02E000BF00E000BF224B1B78A9
:10185C005BB2002B48DA204B1B7803F07F03DAB223
:10186C001D4B1A707B681B68C3F30113DBB283F04A
:10187C000103DBB21B019CB27B681B689BB223F497
:10188C00E04323F070039BB223439CB222467B6857
:10189C001A607B681B68C3F30133DBB283F001036E
:1018AC00DBB21B039CB27B681B689BB223F4E04346
:1018BC0023F070039BB223439CB222467B681A60D0
:1018CC00BDE000BFE8020020A6020020005C004042
:1018DC00FC02002070000020F30200209C0200207B
:1018EC004602002098020020564B1B7803F002039E
:1018FC00002B76D1544B1B683B61524B1B7803F089
:10190C000103002B3ED10020FFF7A2FB03461A4631
:10191C004E4B1B889A4220D24D4C0020FFF798FB6F
:10192C0003462380494B1C880020FFF791FB03469C
:10193C00E31A9AB2454B1A80434B1C680020FFF700
:10194C0087FB03462344404A13603E4B1B7843F00D
:10195C004003DAB23B4B1A7009E03D4B3B4A12880C
:10196C001A803A4B00221A80374B00221A60394BEE
:10197C001988374B1B88C3F309039BB23A69786803
:10198C00FFF7D3FA7B681B68C3F30113DBB283F058
:10199C000303DBB21B019CB27B681B689BB223F474
:1019AC00E04323F070039BB223439CB222467B6836
:1019BC001A607B681B68C3F38013DBB283F00103EE
:1019CC00DBB29B019CB27B681B689BB223F4E043A7
:1019DC0023F070039BB223439CB222467B681A60AF
:1019EC002DE07B681B68C3F30133DBB283F0030388
:1019FC00DBB21B039CB27B681B689BB223F4E043F5
:101A0C0023F070039BB223439CB222467B681A607E
:101A1C007B681B68C3F38033DBB283F00103DBB25A
:101A2C009B039CB27B681B689BB223F4E04323F0BE
:101A3C0070039BB223439CB222467B681A601C370E
:101A4C00BD4690BDF3020020980200204602002003
:101A5C00046000400060004090B585B000AF786035
:101A6C000B46FB70FB78002B40F0EB80994B1B78FE
:101A7C0003F00103002B40F08C80964B1B7843F055
:101A8C000103DAB2934B1A70FB781A01924B134490
:101A9C001988FB781A01914B13441B88C3F3090373
:101AAC009BB28F4A7868FFF786FA8E4B5B78202BB7
:101ABC0017D18C4BDB88082B28BF0823BB81002354
:101ACC00FB7309E0FA7BFB7B87490B4484498A5CF6
:101ADC001A70FB7B0133FB73FB7B9BB2BA899A4276
:101AEC00F0D8FA787B6853F82230C3F30113DBB2D9
:101AFC0083F00303DBB21B019CB2FA787B6853F8CA
:101B0C0022309BB223F4E04323F070039BB22343B7
:101B1C009CB2FA7821467B6843F82210FA787B68ED
:101B2C0053F82230C3F38013DBB283F00103DBB232
:101B3C009B019CB2FA787B6853F822309BB223F459
:101B4C00E04323F070039BB223439CB2FA78214606
:101B5C007B6843F82210FA787B6853F82230C3F381
:101B6C000133DBB283F00203DBB21B039CB2FA78C5
:101B7C007B6853F822309BB223F4E04323F07003CC
:101B8C009BB223439CB2FA7821467B6843F822101F
:101B9C009CE0504B00221A70FA787B6853F8223084
:101BAC00C3F30133DBB283F00303DBB21B039CB240
:101BBC00FA787B6853F822309BB223F4E04323F08D
:101BCC0070039BB223439CB2FA7821467B6843F89E
:101BDC002210FA787B6853F82230C3F38033DBB2DF
:101BEC009B039CB2FA787B6853F822309BB223F4A7
:101BFC00E04323F070039BB223439CB2FA78214656
:101C0C007B6843F82210FA787B6853F82230C3F3D0
:101C1C000113DBB283F00203DBB21B019CB2FA7836
:101C2C007B6853F822309BB223F4E04323F070031B
:101C3C009BB223439CB2FA7821467B6843F822106E
:101C4C0044E0244B1B7803F00403002B3ED1214BC2
:101C5C001B7843F00403DAB21E4B1A70FB781A019E
:101C6C001E4B13441B88C3F309039AB21F4B1A80F3
:101C7C00FB781A01184B13441988FB781A01174B7F
:101C8C0013441B88C3F309039BB2194A1948FFF785
:101C9C0092F9184AFB7852F82330C3F30133DBB2C4
:101CAC0083F00303DBB21B039CB2124AFB7852F89D
:101CBC0023309BB223F4E04323F070039BB2234305
:101CCC009CB20C4AFB78214642F8231000BF143713
:101CDC00BD4690BDF3020020086000400C6000403F
:101CEC0058020020E8020020F4020020F00200203C
:101CFC00A8020020005C004090B585B000AF786071
:101D0C000B46FB70A84B1B7803F00103002B40F033
:101D1C005381A64B1B68FB60FB781846FFF798F9BC
:101D2C0003461A46A24B1B889A426DD2FB781A01C5
:101D3C00A04B13441C46FB781846FFF789F9034661
:101D4C0023809B4B1C88FB781846FFF781F90346D0
:101D5C00E31A9AB2964B1A80944B1C68FB7818467F
:101D6C00FFF776F903462344904A1360FA787B68B0
:101D7C0053F82230C3F30133DBB283F00203DBB23E
:101D8C001B039CB2FA787B6853F822309BB223F485
:101D9C00E04323F070039BB223439CB2FA782146B4
:101DAC007B6843F82210FA787B6853F82230C3F32F
:101DBC000113DBB283F00303DBB21B019CB2FA7894
:101DCC007B6853F822309BB223F4E04323F070037A
:101DDC009BB223439CB2FA7821467B6843F82210CD
:101DEC00FB7803F1806303F5C0631B011988FB7852
:101DFC001A01704B13441B88C3F309039BB2FA6896
:101E0C007868FFF792F841E1FB781A01694B1344AB
:101E1C001A46674B1B881380654B00221A80634B54
:101E2C0000221A60604B1B7823F00803DAB25E4B79
:101E3C001A705D4B1B7803F04003002B54D05A4BA7
:101E4C001B7823F04003DAB2574B1A70FA787B6890
:101E5C0053F82230C3F30133DBB283F00203DBB25D
:101E6C001B039CB2FA787B6853F822309BB223F4A4
:101E7C00E04323F070039BB223439CB2FA782146D3
:101E8C007B6843F82210FA787B6853F82230C3F34E
:101E9C000113DBB283F00303DBB21B019CB2FA78B3
:101EAC007B6853F822309BB223F4E04323F0700399
:101EBC009BB223439CB2FA7821467B6843F82210EC
:101ECC00FB7803F1806303F5C0631B011988FB7871
:101EDC001A01384B13441B88C3F309039BB2FA68ED
:101EEC007868FFF722F8D1E02F4B1B7843F00303FF
:101EFC00DAB22D4B1A70FA787B6853F82230C3F3A0
:101F0C000133DBB283F00303DBB21B039CB2FA7820
:101F1C007B6853F822309BB223F4E04323F0700328
:101F2C009BB223439CB2FA7821467B6843F822107B
:101F3C00FA787B6853F82230C3F30113DBB283F0D9
:101F4C000203DBB21B019CB2FA787B6853F8223097
:101F5C009BB223F4E04323F070039BB223439CB267
:101F6C00FA7821467B6843F82210FA787B6853F89C
:101F7C002230C3F38033DBB283F00103DBB29B036B
:101F8C009CB2FA787B6853F822309BB223F4E0437E
:101F9C0023F070039BB223439CB2FA7821467B68F2
:101FAC0043F8221072E000BFF302002098020020D8
:101FBC004602002004600040364B00221A70FA786A
:101FCC007B6853F82230C3F30133DBB283F0030395
:101FDC00DBB21B039CB2FA787B6853F822309BB2BD
:101FEC0023F4E04323F070039BB223439CB2FA78B2
:101FFC0021467B6843F82210FA787B6853F822302C
:10200C00C3F30113DBB283F00203DBB21B019CB2FE
:10201C00FA787B6853F822309BB223F4E04323F028
:10202C0070039BB223439CB2FA7821467B6843F839
:10203C002210FA787B6853F82230C3F38033DBB27A
:10204C009B039CB2FA787B6853F822309BB223F442
:10205C00E04323F070039BB223439CB2FA782146F1
:10206C007B6843F822100C4B1B78002B0ED00B4BCB
:10207C001B88002B0AD1084B1B7863F07F03DBB263
:10208C001A467B68DA64044B00221A7000BF1437BE
:10209C00BD4690BDF3020020F20200204602002053
:1020AC0090B583B000AF0023FB710023BB80CBE065
:1020BC006C4B5B6CC3F30303DBB21A466A4B1A70AE
:1020CC00694B1B78002B76D1664B5B6CC3F300130A
:1020DC00DBB2002B4DD0634B634A127853F822309D
:1020EC00C3F3C023DBB2002B21D0604B1B88FB71E8
:1020FC005F4B1B88BB80FB799BB2B9885D4A594802
:10210C00FEF759FF574B584A127853F822309AB2BF
:10211C0040F68F7313409CB2524B534A12782146AF
:10212C0043F8221053494F48FFF73AF98CE04D4BD6
:10213C004D4A127853F82230C3F3C033DBB2002B74
:10214C0000F08280474B484A127853F822309AB2FA
:10215C0040F68F7313409CB2424B434A127821468F
:10216C0043F82210404B1B7819463E48FFF774FC8D
:10217C006AE03C4B3C4A127853F82230C3F3C0134C
:10218C00DBB2002B60D0374B374A127853F8223031
:10219C009BB223F4E14323F070039CB2314B324ADF
:1021AC001278214643F822102F4B1B7819462D48E4
:1021BC00FFF7A2FD48E02B4B5B6CC3F30013DBB2C3
:1021CC00002B20D0274B284A127853F82230C3F327
:1021DC00C033DBB2002B37D0224B234A127853F892
:1021EC0022309AB240F68F7313409CB21D4B1E4A9C
:1021FC001278214643F822101B4B1B7819461948BC
:10220C00FFF72AFC20E0174B174A127853F82230BC
:10221C00C3F3C013DBB2002B16D0124B124A127848
:10222C0053F822309BB223F4E14323F070039CB2A9
:10223C000C4B0D4A1278214643F822100A4B1B789E
:10224C0019460848FFF758FD064B5B6CC3F3C033C7
:10225C00DBB2002B7FF42CAF00BF00BF0C37BD46A8
:10226C0090BD00BF005C0040450200200C600040A7
:10227C00086000405802002080B500AF254B5B6C15
:10228C00C3F38023DBB2002B01D0FFF75BF8214BAB
:10229C005B6CC3F3C033DBB2002B01D0FFF700FF44
:1022AC001C4B5B6CC3F34033DBB2002B06D0194ADA
:1022BC00B2F8443023F40053A2F84430154B5B6C55
:1022CC00C3F34023DBB2002B06D0124AB2F84430E1
:1022DC0023F40073A2F844300E4B5B6CC3F3002361
:1022EC00DBB2002B06D00B4AB2F8443023F48073D7
:1022FC00A2F84430074B5B6CC3F3C023DBB2002B5A
:10230C0006D0044AB2F8443023F40063A2F84430F7
:10231C0000BF80BD005C004080B400AF074B1B6861
:10232C0003F00073002B05D0054B1B68044A43F0E7
:10233C000073136000BFBD4680BC704700000240B4
:10234C000400024080B483B000AF78601CE0134BF3
:10235C001B68124A43F004031360114B41F63F72A1
:10236C001A60104B00221A600C4B1B680B4A43F08E
:10237C000103136000BF094B1B6803F48033002B6F
:10238C00F9D07B68013B7B607B68002BDFD100BF01
:10239C0000BF0C37BD4680BC704700BF10E000E0AA
:1023AC0014E000E018E000E00EB46FF0004110B54E
:1023BC0000249DB01FAB0290069007910491094830
:1023CC00094953F8042B0591006802A901931B9449
:1023DC0000F07CF8029B1C701DB0BDE8104003B0EF
:1023EC00704700BF000000200802FFFF014B186877
:1023FC00704700BF000000200A44914200F1FF33F7
:10240C0000D1704710B511F8014B914203F8014F00
:10241C00F9D110BD2DE9F0471F468E688246BE42A9
:10242C000C4690460B682DD8B1F90C2012F4906F25
:10243C0026D06569096905EB4505A3EB010905EB98
:10244C00D5757B1C4B446D109D4238BF1D46530502
:10245C0027D52946FDF704FF064660B34A46216995
:10246C00FFF7CAFFA38923F4906343F08003A38191
:10247C0026614E4426603E466561A5EB0905A560C4
:10248C00BE4200D93E4632464146206800F0AAFAC8
:10249C000020A3689B1BA360236833442360BDE822
:1024AC00F0872A4600F0C6FA06460028E0D15046CE
:1024BC002169FDF76BFE0C23CAF80030A3894FF09D
:1024CC00FF3043F04003A381E9E700002DE9F04F12
:1024DC0098468B8907461B060D4614469DB010D5B1
:1024EC000B6973B94021FDF7BBFE2860286130B938
:1024FC000C233B604FF0FF301DB0BDE8F08F402344
:10250C006B610023099320238DF8293030234FF081
:10251C000109CDF80C80DFF898818DF82A3023461C
:10252C009A4613F8012B0AB1252AF9D1BAEB040B00
:10253C000BD05B46224629463846FFF76BFF01302D
:10254C0000F0A780099A5A4409929AF80030002B9F
:10255C0000F09F8000234FF0FF32CDE905230AF1F4
:10256C00010A049307938DF853301A9354460522AD
:10257C0014F8011B4E4800F04FFA049AD8B9D00653
:10258C0044BF20238DF85330110744BF2B238DF803
:10259C0053309AF800302A2B15D0544600204FF0B7
:1025AC000A0C079A214611F8013B303B092B4BD9F9
:1025BC00B0B1079214E0A0EB080309FA03F313433C
:1025CC00A2460493D2E7039B191D1B680391002BB1
:1025DC00BBBF5B4242F0020207930793B8BF049261
:1025EC0023782E2B0AD163782A2B32D1039B023409
:1025FC001A1D1B68039243EAE3730593DFF8B4A03A
:10260C0003225046217800F007FA38B14022049B8F
:10261C00A0EB0A00824013430134049314F8011B0D
:10262C00062225488DF8281000F0F6F9002836D03F
:10263C00224B1BBB039B073323F007030833039385
:10264C00099B334409936AE70C4601200CFB0232C8
:10265C00A8E700234FF00A0C1946013405932046D5
:10266C0010F8012B303A092A03D9002BC6D005915A
:10267C00C4E7044601230CFB0121F0E703AB0093F4
:10268C002A4638460E4B04A9AFF30080421C06467E
:10269C00D6D1AB895B063FF52DAF09982CE703AB80
:1026AC0000932A463846064B04A900F07DF8EDE766
:1026BC00162B00081C2B0008202B00080000000023
:1026CC00212400082DE9F047164698468A680B69C4
:1026DC0007469342B8BF1346336091F843200C462B
:1026EC00DDF820900AB1013333602368990642BFAC
:1026FC00336802333360256815F0060506D104F102
:10270C00190AE36832689B1AAB422BDC94F843300D
:10271C002268003B18BF0123920630D4414638464C
:10272C0004F14302C847013023D02368226903F027
:10273C000603042B14BF002533684FF0000608BFB6
:10274C00E56804F11A0408BFED1A54F8123C08BFEE
:10275C0025EAE5759342C4BF9B1AED18B5421AD110
:10276C00002008E00123524641463846C847013054
:10277C0003D14FF0FF30BDE8F0870135C1E73020C1
:10278C00E11881F843005A1C94F845102244023396
:10279C0082F84310C2E70123224641463846C84717
:1027AC000130E6D00136D9E72DE9FF470F7E91467F
:1027BC00782F80460C469A460C9E01F1430207D8AE
:1027CC00622F0AD8002F00F0D180582F00F0B8806B
:1027DC0004F1420684F842703AE0A7F16303152B2A
:1027EC00F6D801A151F823F04D2800086128000803
:1027FC00DD270008DD270008DD270008DD2700089D
:10280C0061280008DD270008DD270008DD27000807
:10281C00DD2700085F2900088B280008192900080B
:10282C00DD270008DD27000881290008DD270008C6
:10283C008B280008DD270008DD2700082129000867
:10284C0033681A1D1B68326004F1420684F842306A
:10285C0001239CE033682068191D3160060601D500
:10286C001D6803E04506FBD5B3F90050002D03DAD3
:10287C002D236D4284F843300A23584811E0216817
:10288C003368080653F8045B02D4490648BFADB25E
:10289C006F2F336014BF0A2308235048002184F89B
:1028AC0043106668002EA66005DB21682E4321F0DC
:1028BC00040121604BD01646B5FBF3F103FB115715
:1028CC00C75D06F8017D2F46BB420D46F4D9082B97
:1028DC000BD12368DF0708D5236961689942DEBFF5
:1028EC00302306F8013C06F1FF36921B22614B4661
:1028FC0021464046CDF800A003AAFFF7E3FE0130C5
:10290C004AD14FF0FF3004B0BDE8F087236843F0A4
:10291C00200323607827324884F845702368316897
:10292C001F0651F8045B02D45F0648BFADB231609C
:10293C00D90744BF43F0200323601DB11023ADE73A
:10294C002648E9E7236823F020032360F6E71646C0
:10295C00BDE733682568181D616930602E061B6859
:10296C0001D5196002E06806FBD5198000231646D4
:10297C002361BCE7336800211A1D32601E6862684F
:10298C00304600F049F808B1801B60606368236131
:10299C00002384F84330AAE732464946404623696F
:1029AC00D0470130ADD023689B0713D4E068039B5C
:1029BC009842B8BF1846A6E701233246494640461E
:1029CC00D04701309DD00135E36803995B1AAB42C7
:1029DC00F2DCEBE7002504F11906F5E7272B0008DC
:1029EC00382B0008884210B501EB020402D984424E
:1029FC00234607D8431EA14208D011F8012B03F837
:102A0C00012FF8E7014602448A4200D110BD13F8A9
:102A1C00014D02F8014DF7E7034610B5C9B2024467
:102A2C009342184601D1002003E0047801338C4214
:102A3C00F6D110BD2DE9F041074614460D4621B9DB
:102A4C001146BDE8F041FDF70BBC2AB9FDF79EFB22
:102A5C0025462846BDE8F08100F01AF88442064667
:102A6C0002D8B4EB500FF4D821463846FDF7F8FBEA
:102A7C00804608B94546ECE7B4422246294628BFB1
:102A8C003246FFF7B9FC29463846FDF77FFBF1E7E4
:102A9C0051F8043C181F002BBCBF0B58C0187047D2
:102AAC00F8B500BFF8BC08BC9E467047F8B500BF2F
:082ABC00F8BC08BC9E467047FF
:102AC400202564202564000053544D6963726F65AA
:102AD4006C656374726F6E6963730000486F632082
:102AE40063756E67204554003030303030303030FC
:102AF400303031410000000043444320436F6E6690
:102B04006967000043444320496E746572666163DB
:102B14006500232D302B2000686C4C0065666745EA
:102B24004647003031323334353637383941424341
:102B340044454600303132333435363738396162F2
:082B44006364656600000000F7
:042B4C00310100084B
:042B50000D0100086B
:102B54000400002000000000D40000203C010020FC
:102B6400A40100200000000000000000000000009C
:102B74000000000000000000000000000000000051
:102B84000000000000000000000000000000000041
:102B94000000000000000000000000000000000031
:102BA40000127A001000000001000000120100026F
:102BB40002000040341278560002010203010000B2
:102BC40009024300020100C03209040000010202AC
:102BD400010005240010010524010001042402025F
:102BE40005240600010705820308001009040100FA
:102BF400020A0000000705010240000007058102E7
:082C0400400000000403090474
:04000005080008C126
:00000001FF
